{
    "_format": "hh-sol-artifact-1",
    "contractName": "PharmaSupplyChain",
    "sourceName": "contracts/PharmaSupplyChain.sol",
    "abi": [
        {
            "inputs": [
                {
                    "internalType": "string",
                    "name": "_id",
                    "type": "string"
                },
                {
                    "internalType": "string",
                    "name": "_name",
                    "type": "string"
                }
            ],
            "name": "addBuyer",
            "outputs": [],
            "stateMutability": "nonpayable",
            "type": "function"
        },
        {
            "inputs": [
                {
                    "internalType": "string",
                    "name": "_id",
                    "type": "string"
                },
                {
                    "internalType": "uint256",
                    "name": "_contact",
                    "type": "uint256"
                },
                {
                    "internalType": "string",
                    "name": "_medicineName",
                    "type": "string"
                },
                {
                    "internalType": "string",
                    "name": "_sellingRetailer",
                    "type": "string"
                }
            ],
            "name": "addManufactuer",
            "outputs": [],
            "stateMutability": "nonpayable",
            "type": "function"
        },
        {
            "inputs": [
                {
                    "internalType": "string",
                    "name": "_manuDate",
                    "type": "string"
                },
                {
                    "internalType": "string",
                    "name": "_expDate",
                    "type": "string"
                },
                {
                    "internalType": "uint256",
                    "name": "_serialNo",
                    "type": "uint256"
                },
                {
                    "internalType": "string",
                    "name": "_manufacturedBy",
                    "type": "string"
                },
                {
                    "internalType": "string",
                    "name": "_soldBy",
                    "type": "string"
                },
                {
                    "internalType": "uint256",
                    "name": "_price",
                    "type": "uint256"
                }
            ],
            "name": "addNewMedicine",
            "outputs": [],
            "stateMutability": "nonpayable",
            "type": "function"
        },
        {
            "inputs": [
                {
                    "internalType": "string",
                    "name": "_id",
                    "type": "string"
                },
                {
                    "internalType": "string",
                    "name": "_shopname",
                    "type": "string"
                },
                {
                    "internalType": "uint256",
                    "name": "_contact",
                    "type": "uint256"
                },
                {
                    "internalType": "string",
                    "name": "_location",
                    "type": "string"
                },
                {
                    "internalType": "string",
                    "name": "_buyingManu",
                    "type": "string"
                },
                {
                    "internalType": "string",
                    "name": "_medicineName",
                    "type": "string"
                }
            ],
            "name": "addRetailer",
            "outputs": [],
            "stateMutability": "nonpayable",
            "type": "function"
        },
        {
            "inputs": [
                {
                    "internalType": "address payable",
                    "name": "to",
                    "type": "address"
                }
            ],
            "name": "buyMedicine",
            "outputs": [],
            "stateMutability": "payable",
            "type": "function"
        },
        {
            "inputs": [
                {
                    "internalType": "string",
                    "name": "_id",
                    "type": "string"
                }
            ],
            "name": "checkIfManufactueredIsValid",
            "outputs": [
                {
                    "internalType": "bool",
                    "name": "",
                    "type": "bool"
                }
            ],
            "stateMutability": "view",
            "type": "function"
        },
        {
            "inputs": [
                {
                    "internalType": "uint256",
                    "name": "_serial",
                    "type": "uint256"
                }
            ],
            "name": "checkIfMedicineIsValid",
            "outputs": [
                {
                    "internalType": "bool",
                    "name": "",
                    "type": "bool"
                }
            ],
            "stateMutability": "view",
            "type": "function"
        },
        {
            "inputs": [
                {
                    "internalType": "uint256",
                    "name": "_serial",
                    "type": "uint256"
                }
            ],
            "name": "getMedicineDetails",
            "outputs": [
                {
                    "components": [
                        {
                            "internalType": "string",
                            "name": "manuDate",
                            "type": "string"
                        },
                        {
                            "internalType": "string",
                            "name": "expDate",
                            "type": "string"
                        },
                        {
                            "internalType": "uint256",
                            "name": "serialNo",
                            "type": "uint256"
                        },
                        {
                            "internalType": "string",
                            "name": "manufacturedBy",
                            "type": "string"
                        },
                        {
                            "internalType": "string",
                            "name": "soldBy",
                            "type": "string"
                        },
                        {
                            "internalType": "uint256",
                            "name": "price",
                            "type": "uint256"
                        }
                    ],
                    "internalType": "struct PharmaSupplyChain.Medicine",
                    "name": "",
                    "type": "tuple"
                }
            ],
            "stateMutability": "view",
            "type": "function"
        },
        {
            "inputs": [
                {
                    "internalType": "string",
                    "name": "_retailerId",
                    "type": "string"
                },
                {
                    "internalType": "uint256",
                    "name": "_quantity",
                    "type": "uint256"
                }
            ],
            "name": "placeOrder",
            "outputs": [],
            "stateMutability": "nonpayable",
            "type": "function"
        }
    ],
    "bytecode": "0x608060405234801561001057600080fd5b50611a2d806100206000396000f3fe6080604052600436106100865760003560e01c8063bf4fe2c611610059578063bf4fe2c614610143578063c2d232b21461016c578063d34d7d83146101a9578063d870e581146101d2578063e9f3a7971461020f57610086565b80630b5b5ffd1461008b5780632f5f957c146100b4578063641b784b146100f1578063a1b6e8361461011a575b600080fd5b34801561009757600080fd5b506100b260048036038101906100ad919061122b565b61022b565b005b3480156100c057600080fd5b506100db60048036038101906100d69190611514565b610328565b6040516100e8919061175d565b60405180910390f35b3480156100fd57600080fd5b506101186004803603810190610113919061132c565b6106b6565b005b34801561012657600080fd5b50610141600480360381019061013c9190611415565b6107e5565b005b34801561014f57600080fd5b5061016a600480360381019061016591906111bf565b610c7e565b005b34801561017857600080fd5b50610193600480360381019061018e919061117e565b610cfe565b6040516101a09190611742565b60405180910390f35b3480156101b557600080fd5b506101d060048036038101906101cb9190611469565b610dd9565b005b3480156101de57600080fd5b506101f960048036038101906101f49190611514565b610e8e565b6040516102069190611742565b60405180910390f35b61022960048036038101906102249190611155565b610f6a565b005b60026040518060c00160405280888152602001878152602001868152602001858152602001848152602001838152509080600181540180825580915050600190039060005260206000209060060201600090919091909150600082015181600001908051906020019061029f929190610fb4565b5060208201518160010190805190602001906102bc929190610fb4565b506040820151816002015560608201518160030190805190602001906102e3929190610fb4565b506080820151816004019080519060200190610300929190610fb4565b5060a082015181600501908051906020019061031d929190610fb4565b505050505050505050565b61033061103a565b61033861103a565b60005b6000805490508110156106ac57836040516020016103599190611727565b60405160208183030381529060405280519060200120600082815481106103a9577f4e487b7100000000000000000000000000000000000000000000000000000000600052603260045260246000fd5b9060005260206000209060060201600201546040516020016103cb9190611727565b6040516020818303038152906040528051906020012014156106995760008181548110610421577f4e487b7100000000000000000000000000000000000000000000000000000000600052603260045260246000fd5b90600052602060002090600602016040518060c001604052908160008201805461044a906118a6565b80601f0160208091040260200160405190810160405280929190818152602001828054610476906118a6565b80156104c35780601f10610498576101008083540402835291602001916104c3565b820191906000526020600020905b8154815290600101906020018083116104a657829003601f168201915b505050505081526020016001820180546104dc906118a6565b80601f0160208091040260200160405190810160405280929190818152602001828054610508906118a6565b80156105555780601f1061052a57610100808354040283529160200191610555565b820191906000526020600020905b81548152906001019060200180831161053857829003601f168201915b5050505050815260200160028201548152602001600382018054610578906118a6565b80601f01602080910402602001604051908101604052809291908181526020018280546105a4906118a6565b80156105f15780601f106105c6576101008083540402835291602001916105f1565b820191906000526020600020905b8154815290600101906020018083116105d457829003601f168201915b5050505050815260200160048201805461060a906118a6565b80601f0160208091040260200160405190810160405280929190818152602001828054610636906118a6565b80156106835780601f1061065857610100808354040283529160200191610683565b820191906000526020600020905b81548152906001019060200180831161066657829003601f168201915b5050505050815260200160058201548152505091505b80806106a4906118d8565b91505061033b565b5080915050919050565b60006040518060c00160405280888152602001878152602001868152602001858152602001848152602001838152509080600181540180825580915050600190039060005260206000209060060201600090919091909150600082015181600001908051906020019061072a929190610fb4565b506020820151816001019080519060200190610747929190610fb4565b5060408201518160020155606082015181600301908051906020019061076e929190610fb4565b50608082015181600401908051906020019061078b929190610fb4565b5060a0820151816005015550506005836040516107a891906116f9565b9081526020016040518091039020849080600181540180825580915050600190039060005260206000200160009091909190915055505050505050565b6107ed611070565b60005b600280549050811015610be8578360405160200161080e91906116f9565b604051602081830303815290604052805190602001206002828154811061085e577f4e487b7100000000000000000000000000000000000000000000000000000000600052603260045260246000fd5b906000526020600020906006020160000160405160200161087f9190611710565b604051602081830303815290604052805190602001201415610bd557600281815481106108d5577f4e487b7100000000000000000000000000000000000000000000000000000000600052603260045260246000fd5b90600052602060002090600602016040518060c00160405290816000820180546108fe906118a6565b80601f016020809104026020016040519081016040528092919081815260200182805461092a906118a6565b80156109775780601f1061094c57610100808354040283529160200191610977565b820191906000526020600020905b81548152906001019060200180831161095a57829003601f168201915b50505050508152602001600182018054610990906118a6565b80601f01602080910402602001604051908101604052809291908181526020018280546109bc906118a6565b8015610a095780601f106109de57610100808354040283529160200191610a09565b820191906000526020600020905b8154815290600101906020018083116109ec57829003601f168201915b5050505050815260200160028201548152602001600382018054610a2c906118a6565b80601f0160208091040260200160405190810160405280929190818152602001828054610a58906118a6565b8015610aa55780601f10610a7a57610100808354040283529160200191610aa5565b820191906000526020600020905b815481529060010190602001808311610a8857829003601f168201915b50505050508152602001600482018054610abe906118a6565b80601f0160208091040260200160405190810160405280929190818152602001828054610aea906118a6565b8015610b375780601f10610b0c57610100808354040283529160200191610b37565b820191906000526020600020905b815481529060010190602001808311610b1a57829003601f168201915b50505050508152602001600582018054610b50906118a6565b80601f0160208091040260200160405190810160405280929190818152602001828054610b7c906118a6565b8015610bc95780601f10610b9e57610100808354040283529160200191610bc9565b820191906000526020600020905b815481529060010190602001808311610bac57829003601f168201915b50505050508152505091505b8080610be0906118d8565b9150506107f0565b5060046040518060600160405280858152602001848152602001836080015181525090806001815401808255809150506001900390600052602060002090600302016000909190919091506000820151816000019080519060200190610c4f929190610fb4565b50602082015181600101556040820151816002019080519060200190610c76929190610fb4565b505050505050565b600360405180604001604052808481526020018381525090806001815401808255809150506001900390600052602060002090600202016000909190919091506000820151816000019080519060200190610cda929190610fb4565b506020820151816001019080519060200190610cf7929190610fb4565b5050505050565b600080600090505b600180549050811015610dce5782604051602001610d2491906116f9565b6040516020818303038152906040528051906020012060018281548110610d74577f4e487b7100000000000000000000000000000000000000000000000000000000600052603260045260246000fd5b9060005260206000209060040201600001604051602001610d959190611710565b604051602081830303815290604052805190602001201415610dbb576001915050610dd4565b8080610dc6906118d8565b915050610d06565b50600090505b919050565b600160405180608001604052808681526020018581526020018481526020018381525090806001815401808255809150506001900390600052602060002090600402016000909190919091506000820151816000019080519060200190610e41929190610fb4565b50602082015181600101556040820151816002019080519060200190610e68929190610fb4565b506060820151816003019080519060200190610e85929190610fb4565b50505050505050565b600080600090505b600080549050811015610f5f5782604051602001610eb49190611727565b6040516020818303038152906040528051906020012060008281548110610f04577f4e487b7100000000000000000000000000000000000000000000000000000000600052603260045260246000fd5b906000526020600020906006020160020154604051602001610f269190611727565b604051602081830303815290604052805190602001201415610f4c576001915050610f65565b8080610f57906118d8565b915050610e96565b50600090505b919050565b8073ffffffffffffffffffffffffffffffffffffffff166108fc349081150290604051600060405180830381858888f19350505050158015610fb0573d6000803e3d6000fd5b5050565b828054610fc0906118a6565b90600052602060002090601f016020900481019282610fe25760008555611029565b82601f10610ffb57805160ff1916838001178555611029565b82800160010185558215611029579182015b8281111561102857825182559160200191906001019061100d565b5b50905061103691906110a6565b5090565b6040518060c001604052806060815260200160608152602001600081526020016060815260200160608152602001600081525090565b6040518060c001604052806060815260200160608152602001600081526020016060815260200160608152602001606081525090565b5b808211156110bf5760008160009055506001016110a7565b5090565b60006110d66110d1846117b0565b61177f565b9050828152602081018484840111156110ee57600080fd5b6110f9848285611864565b509392505050565b600081359050611110816119c9565b92915050565b600082601f83011261112757600080fd5b81356111378482602086016110c3565b91505092915050565b60008135905061114f816119e0565b92915050565b60006020828403121561116757600080fd5b600061117584828501611101565b91505092915050565b60006020828403121561119057600080fd5b600082013567ffffffffffffffff8111156111aa57600080fd5b6111b684828501611116565b91505092915050565b600080604083850312156111d257600080fd5b600083013567ffffffffffffffff8111156111ec57600080fd5b6111f885828601611116565b925050602083013567ffffffffffffffff81111561121557600080fd5b61122185828601611116565b9150509250929050565b60008060008060008060c0878903121561124457600080fd5b600087013567ffffffffffffffff81111561125e57600080fd5b61126a89828a01611116565b965050602087013567ffffffffffffffff81111561128757600080fd5b61129389828a01611116565b95505060406112a489828a01611140565b945050606087013567ffffffffffffffff8111156112c157600080fd5b6112cd89828a01611116565b935050608087013567ffffffffffffffff8111156112ea57600080fd5b6112f689828a01611116565b92505060a087013567ffffffffffffffff81111561131357600080fd5b61131f89828a01611116565b9150509295509295509295565b60008060008060008060c0878903121561134557600080fd5b600087013567ffffffffffffffff81111561135f57600080fd5b61136b89828a01611116565b965050602087013567ffffffffffffffff81111561138857600080fd5b61139489828a01611116565b95505060406113a589828a01611140565b945050606087013567ffffffffffffffff8111156113c257600080fd5b6113ce89828a01611116565b935050608087013567ffffffffffffffff8111156113eb57600080fd5b6113f789828a01611116565b92505060a061140889828a01611140565b9150509295509295509295565b6000806040838503121561142857600080fd5b600083013567ffffffffffffffff81111561144257600080fd5b61144e85828601611116565b925050602061145f85828601611140565b9150509250929050565b6000806000806080858703121561147f57600080fd5b600085013567ffffffffffffffff81111561149957600080fd5b6114a587828801611116565b94505060206114b687828801611140565b935050604085013567ffffffffffffffff8111156114d357600080fd5b6114df87828801611116565b925050606085013567ffffffffffffffff8111156114fc57600080fd5b61150887828801611116565b91505092959194509250565b60006020828403121561152657600080fd5b600061153484828501611140565b91505092915050565b6115468161182e565b82525050565b6000611557826117f5565b6115618185611800565b9350611571818560208601611873565b61157a816119b8565b840191505092915050565b6000611590826117f5565b61159a8185611811565b93506115aa818560208601611873565b80840191505092915050565b600081546115c3816118a6565b6115cd8186611811565b945060018216600081146115e857600181146115f95761162c565b60ff1983168652818601935061162c565b611602856117e0565b60005b8381101561162457815481890152600182019150602081019050611605565b838801955050505b50505092915050565b600060c0830160008301518482036000860152611652828261154c565b9150506020830151848203602086015261166c828261154c565b915050604083015161168160408601826116d3565b5060608301518482036060860152611699828261154c565b915050608083015184820360808601526116b3828261154c565b91505060a08301516116c860a08601826116d3565b508091505092915050565b6116dc8161185a565b82525050565b6116f36116ee8261185a565b611921565b82525050565b60006117058284611585565b915081905092915050565b600061171c82846115b6565b915081905092915050565b600061173382846116e2565b60208201915081905092915050565b6000602082019050611757600083018461153d565b92915050565b600060208201905081810360008301526117778184611635565b905092915050565b6000604051905081810181811067ffffffffffffffff821117156117a6576117a5611989565b5b8060405250919050565b600067ffffffffffffffff8211156117cb576117ca611989565b5b601f19601f8301169050602081019050919050565b60008190508160005260206000209050919050565b600081519050919050565b600082825260208201905092915050565b600081905092915050565b60006118278261183a565b9050919050565b60008115159050919050565b600073ffffffffffffffffffffffffffffffffffffffff82169050919050565b6000819050919050565b82818337600083830152505050565b60005b83811015611891578082015181840152602081019050611876565b838111156118a0576000848401525b50505050565b600060028204905060018216806118be57607f821691505b602082108114156118d2576118d161195a565b5b50919050565b60006118e38261185a565b91507fffffffffffffffffffffffffffffffffffffffffffffffffffffffffffffffff8214156119165761191561192b565b5b600182019050919050565b6000819050919050565b7f4e487b7100000000000000000000000000000000000000000000000000000000600052601160045260246000fd5b7f4e487b7100000000000000000000000000000000000000000000000000000000600052602260045260246000fd5b7f4e487b7100000000000000000000000000000000000000000000000000000000600052604160045260246000fd5b6000601f19601f8301169050919050565b6119d28161181c565b81146119dd57600080fd5b50565b6119e98161185a565b81146119f457600080fd5b5056fea26469706673582212206b0eefee649af98c4d40c1ffbd3c9f283cb64d10ff088edd36c48f9aa790a76664736f6c63430008000033",
    "linkReferences": {},
    "deployedLinkReferences": {}
}